{
  "contractName": "CampusRental",
  "abi": [
    {
      "anonymous": false,
      "inputs": [
        {
          "indexed": true,
          "internalType": "uint256",
          "name": "itemId",
          "type": "uint256"
        },
        {
          "indexed": true,
          "internalType": "address",
          "name": "owner",
          "type": "address"
        },
        {
          "indexed": false,
          "internalType": "string",
          "name": "name",
          "type": "string"
        },
        {
          "indexed": false,
          "internalType": "uint256",
          "name": "rentPerDay",
          "type": "uint256"
        },
        {
          "indexed": false,
          "internalType": "uint256",
          "name": "deposit",
          "type": "uint256"
        }
      ],
      "name": "ItemCreated",
      "type": "event"
    },
    {
      "anonymous": false,
      "inputs": [
        {
          "indexed": true,
          "internalType": "uint256",
          "name": "itemId",
          "type": "uint256"
        },
        {
          "indexed": true,
          "internalType": "address",
          "name": "owner",
          "type": "address"
        }
      ],
      "name": "ItemRelisted",
      "type": "event"
    },
    {
      "anonymous": false,
      "inputs": [
        {
          "indexed": true,
          "internalType": "uint256",
          "name": "rentalId",
          "type": "uint256"
        },
        {
          "indexed": true,
          "internalType": "uint256",
          "name": "itemId",
          "type": "uint256"
        },
        {
          "indexed": true,
          "internalType": "address",
          "name": "renter",
          "type": "address"
        },
        {
          "indexed": false,
          "internalType": "uint256",
          "name": "rentDays",
          "type": "uint256"
        },
        {
          "indexed": false,
          "internalType": "uint256",
          "name": "paidAmount",
          "type": "uint256"
        }
      ],
      "name": "ItemRented",
      "type": "event"
    },
    {
      "anonymous": false,
      "inputs": [
        {
          "indexed": true,
          "internalType": "uint256",
          "name": "itemId",
          "type": "uint256"
        },
        {
          "indexed": true,
          "internalType": "address",
          "name": "owner",
          "type": "address"
        }
      ],
      "name": "ItemUnlisted",
      "type": "event"
    },
    {
      "anonymous": false,
      "inputs": [
        {
          "indexed": true,
          "internalType": "uint256",
          "name": "rentalId",
          "type": "uint256"
        },
        {
          "indexed": true,
          "internalType": "uint256",
          "name": "itemId",
          "type": "uint256"
        },
        {
          "indexed": true,
          "internalType": "address",
          "name": "owner",
          "type": "address"
        },
        {
          "indexed": false,
          "internalType": "address",
          "name": "renter",
          "type": "address"
        },
        {
          "indexed": false,
          "internalType": "uint256",
          "name": "rentAmount",
          "type": "uint256"
        },
        {
          "indexed": false,
          "internalType": "uint256",
          "name": "depositAmount",
          "type": "uint256"
        }
      ],
      "name": "ReturnConfirmed",
      "type": "event"
    },
    {
      "anonymous": false,
      "inputs": [
        {
          "indexed": true,
          "internalType": "uint256",
          "name": "rentalId",
          "type": "uint256"
        },
        {
          "indexed": true,
          "internalType": "uint256",
          "name": "itemId",
          "type": "uint256"
        },
        {
          "indexed": true,
          "internalType": "address",
          "name": "renter",
          "type": "address"
        }
      ],
      "name": "ReturnRequested",
      "type": "event"
    },
    {
      "inputs": [
        {
          "internalType": "string",
          "name": "name",
          "type": "string"
        },
        {
          "internalType": "string",
          "name": "description",
          "type": "string"
        },
        {
          "internalType": "uint256",
          "name": "rentPerDay",
          "type": "uint256"
        },
        {
          "internalType": "uint256",
          "name": "deposit",
          "type": "uint256"
        },
        {
          "internalType": "uint256",
          "name": "maxRentalDays",
          "type": "uint256"
        }
      ],
      "name": "createItem",
      "outputs": [
        {
          "internalType": "uint256",
          "name": "itemId",
          "type": "uint256"
        }
      ],
      "stateMutability": "nonpayable",
      "type": "function"
    },
    {
      "inputs": [
        {
          "internalType": "uint256",
          "name": "itemId",
          "type": "uint256"
        },
        {
          "internalType": "uint256",
          "name": "rentDays",
          "type": "uint256"
        }
      ],
      "name": "rentItem",
      "outputs": [
        {
          "internalType": "uint256",
          "name": "rentalId",
          "type": "uint256"
        }
      ],
      "stateMutability": "payable",
      "type": "function",
      "payable": true
    },
    {
      "inputs": [
        {
          "internalType": "uint256",
          "name": "rentalId",
          "type": "uint256"
        }
      ],
      "name": "requestReturn",
      "outputs": [],
      "stateMutability": "nonpayable",
      "type": "function"
    },
    {
      "inputs": [
        {
          "internalType": "uint256",
          "name": "rentalId",
          "type": "uint256"
        }
      ],
      "name": "confirmReturn",
      "outputs": [],
      "stateMutability": "nonpayable",
      "type": "function"
    },
    {
      "inputs": [
        {
          "internalType": "uint256",
          "name": "itemId",
          "type": "uint256"
        }
      ],
      "name": "unlistItem",
      "outputs": [],
      "stateMutability": "nonpayable",
      "type": "function"
    },
    {
      "inputs": [
        {
          "internalType": "uint256",
          "name": "itemId",
          "type": "uint256"
        }
      ],
      "name": "relistItem",
      "outputs": [],
      "stateMutability": "nonpayable",
      "type": "function"
    },
    {
      "inputs": [
        {
          "internalType": "uint256",
          "name": "itemId",
          "type": "uint256"
        }
      ],
      "name": "getItem",
      "outputs": [
        {
          "components": [
            {
              "internalType": "uint256",
              "name": "id",
              "type": "uint256"
            },
            {
              "internalType": "address payable",
              "name": "owner",
              "type": "address"
            },
            {
              "internalType": "string",
              "name": "name",
              "type": "string"
            },
            {
              "internalType": "string",
              "name": "description",
              "type": "string"
            },
            {
              "internalType": "uint256",
              "name": "rentPerDay",
              "type": "uint256"
            },
            {
              "internalType": "uint256",
              "name": "deposit",
              "type": "uint256"
            },
            {
              "internalType": "uint256",
              "name": "maxRentalDays",
              "type": "uint256"
            },
            {
              "internalType": "enum CampusRental.ItemStatus",
              "name": "status",
              "type": "uint8"
            },
            {
              "internalType": "uint256",
              "name": "createdAt",
              "type": "uint256"
            }
          ],
          "internalType": "struct CampusRental.Item",
          "name": "",
          "type": "tuple"
        }
      ],
      "stateMutability": "view",
      "type": "function",
      "constant": true
    },
    {
      "inputs": [
        {
          "internalType": "uint256",
          "name": "rentalId",
          "type": "uint256"
        }
      ],
      "name": "getRental",
      "outputs": [
        {
          "components": [
            {
              "internalType": "uint256",
              "name": "id",
              "type": "uint256"
            },
            {
              "internalType": "uint256",
              "name": "itemId",
              "type": "uint256"
            },
            {
              "internalType": "address payable",
              "name": "renter",
              "type": "address"
            },
            {
              "internalType": "uint256",
              "name": "rentDays",
              "type": "uint256"
            },
            {
              "internalType": "uint256",
              "name": "rentAmount",
              "type": "uint256"
            },
            {
              "internalType": "uint256",
              "name": "depositAmount",
              "type": "uint256"
            },
            {
              "internalType": "uint256",
              "name": "startTime",
              "type": "uint256"
            },
            {
              "internalType": "uint256",
              "name": "returnRequestedAt",
              "type": "uint256"
            },
            {
              "internalType": "uint256",
              "name": "completedAt",
              "type": "uint256"
            },
            {
              "internalType": "enum CampusRental.RentalStatus",
              "name": "status",
              "type": "uint8"
            }
          ],
          "internalType": "struct CampusRental.RentalRecord",
          "name": "",
          "type": "tuple"
        }
      ],
      "stateMutability": "view",
      "type": "function",
      "constant": true
    },
    {
      "inputs": [],
      "name": "getAllItems",
      "outputs": [
        {
          "components": [
            {
              "internalType": "uint256",
              "name": "id",
              "type": "uint256"
            },
            {
              "internalType": "address payable",
              "name": "owner",
              "type": "address"
            },
            {
              "internalType": "string",
              "name": "name",
              "type": "string"
            },
            {
              "internalType": "string",
              "name": "description",
              "type": "string"
            },
            {
              "internalType": "uint256",
              "name": "rentPerDay",
              "type": "uint256"
            },
            {
              "internalType": "uint256",
              "name": "deposit",
              "type": "uint256"
            },
            {
              "internalType": "uint256",
              "name": "maxRentalDays",
              "type": "uint256"
            },
            {
              "internalType": "enum CampusRental.ItemStatus",
              "name": "status",
              "type": "uint8"
            },
            {
              "internalType": "uint256",
              "name": "createdAt",
              "type": "uint256"
            }
          ],
          "internalType": "struct CampusRental.Item[]",
          "name": "",
          "type": "tuple[]"
        }
      ],
      "stateMutability": "view",
      "type": "function",
      "constant": true
    },
    {
      "inputs": [],
      "name": "getAvailableItems",
      "outputs": [
        {
          "components": [
            {
              "internalType": "uint256",
              "name": "id",
              "type": "uint256"
            },
            {
              "internalType": "address payable",
              "name": "owner",
              "type": "address"
            },
            {
              "internalType": "string",
              "name": "name",
              "type": "string"
            },
            {
              "internalType": "string",
              "name": "description",
              "type": "string"
            },
            {
              "internalType": "uint256",
              "name": "rentPerDay",
              "type": "uint256"
            },
            {
              "internalType": "uint256",
              "name": "deposit",
              "type": "uint256"
            },
            {
              "internalType": "uint256",
              "name": "maxRentalDays",
              "type": "uint256"
            },
            {
              "internalType": "enum CampusRental.ItemStatus",
              "name": "status",
              "type": "uint8"
            },
            {
              "internalType": "uint256",
              "name": "createdAt",
              "type": "uint256"
            }
          ],
          "internalType": "struct CampusRental.Item[]",
          "name": "",
          "type": "tuple[]"
        }
      ],
      "stateMutability": "view",
      "type": "function",
      "constant": true
    },
    {
      "inputs": [
        {
          "internalType": "address",
          "name": "user",
          "type": "address"
        }
      ],
      "name": "getMyPublishedItems",
      "outputs": [
        {
          "components": [
            {
              "internalType": "uint256",
              "name": "id",
              "type": "uint256"
            },
            {
              "internalType": "address payable",
              "name": "owner",
              "type": "address"
            },
            {
              "internalType": "string",
              "name": "name",
              "type": "string"
            },
            {
              "internalType": "string",
              "name": "description",
              "type": "string"
            },
            {
              "internalType": "uint256",
              "name": "rentPerDay",
              "type": "uint256"
            },
            {
              "internalType": "uint256",
              "name": "deposit",
              "type": "uint256"
            },
            {
              "internalType": "uint256",
              "name": "maxRentalDays",
              "type": "uint256"
            },
            {
              "internalType": "enum CampusRental.ItemStatus",
              "name": "status",
              "type": "uint8"
            },
            {
              "internalType": "uint256",
              "name": "createdAt",
              "type": "uint256"
            }
          ],
          "internalType": "struct CampusRental.Item[]",
          "name": "",
          "type": "tuple[]"
        }
      ],
      "stateMutability": "view",
      "type": "function",
      "constant": true
    },
    {
      "inputs": [
        {
          "internalType": "address",
          "name": "user",
          "type": "address"
        }
      ],
      "name": "getMyRentalRecords",
      "outputs": [
        {
          "components": [
            {
              "internalType": "uint256",
              "name": "id",
              "type": "uint256"
            },
            {
              "internalType": "uint256",
              "name": "itemId",
              "type": "uint256"
            },
            {
              "internalType": "address payable",
              "name": "renter",
              "type": "address"
            },
            {
              "internalType": "uint256",
              "name": "rentDays",
              "type": "uint256"
            },
            {
              "internalType": "uint256",
              "name": "rentAmount",
              "type": "uint256"
            },
            {
              "internalType": "uint256",
              "name": "depositAmount",
              "type": "uint256"
            },
            {
              "internalType": "uint256",
              "name": "startTime",
              "type": "uint256"
            },
            {
              "internalType": "uint256",
              "name": "returnRequestedAt",
              "type": "uint256"
            },
            {
              "internalType": "uint256",
              "name": "completedAt",
              "type": "uint256"
            },
            {
              "internalType": "enum CampusRental.RentalStatus",
              "name": "status",
              "type": "uint8"
            }
          ],
          "internalType": "struct CampusRental.RentalRecord[]",
          "name": "",
          "type": "tuple[]"
        }
      ],
      "stateMutability": "view",
      "type": "function",
      "constant": true
    },
    {
      "inputs": [
        {
          "internalType": "uint256",
          "name": "itemId",
          "type": "uint256"
        }
      ],
      "name": "getActiveRentalByItem",
      "outputs": [
        {
          "internalType": "uint256",
          "name": "",
          "type": "uint256"
        }
      ],
      "stateMutability": "view",
      "type": "function",
      "constant": true
    }
  ],
  "bytecode": "0x608060405260015f5560018055348015610017575f80fd5b506124a2806100255f395ff3fe6080604052600436106100bf575f3560e01c80634ba1d6aa1161007c578063652bd29e11610057578063652bd29e146102045780636adb7f9214610230578063a29e4e5d1461024f578063b011a44f14610262575f80fd5b80634ba1d6aa146101b257806358676582146101c65780635a599da8146101e5575f80fd5b806307f58819146100c35780630c43d6f3146100f857806310c99993146101195780631f0b9e77146101465780632e5df6e3146101675780633129e77314610186575b5f80fd5b3480156100ce575f80fd5b506100e26100dd366004611e2e565b610281565b6040516100ef9190611f03565b60405180910390f35b348015610103575f80fd5b5061010c610407565b6040516100ef9190612040565b348015610124575f80fd5b506101386101333660046120a0565b6106e5565b6040519081526020016100ef565b348015610151575f80fd5b506101656101603660046120a0565b610733565b005b348015610172575f80fd5b506101656101813660046120a0565b610844565b348015610191575f80fd5b506101a56101a03660046120a0565b610b6f565b6040516100ef91906120b7565b3480156101bd575f80fd5b5061010c610d5d565b3480156101d1575f80fd5b506101656101e03660046120a0565b610fc4565b3480156101f0575f80fd5b506101656101ff3660046120a0565b611195565b34801561020f575f80fd5b5061022361021e3660046120a0565b6112a9565b6040516100ef91906120c9565b34801561023b575f80fd5b5061013861024a36600461217b565b611395565b61013861025d3660046121f4565b6116ba565b34801561026d575f80fd5b5061010c61027c366004611e2e565b611aef565b6001600160a01b0381165f90815260066020526040812080546060929067ffffffffffffffff8111156102b6576102b66120de565b6040519080825280602002602001820160405280156102ef57816020015b6102dc611d6d565b8152602001906001900390816102d45790505b5090505f5b82548110156103ff5760035f84838154811061031257610312612214565b5f91825260208083209091015483528281019390935260409182019020815161014081018352815481526001820154938101939093526002808201546001600160a01b0316928401929092526003810154606084015260048101546080840152600581015460a0840152600681015460c0840152600781015460e084015260088101546101008401526009810154909161012084019160ff16908111156103bb576103bb611e5b565b60028111156103cc576103cc611e5b565b815250508282815181106103e2576103e2612214565b60209081029190910101526103f860018261223c565b90506102f4565b509392505050565b60605f60015b5f54811015610460575f8181526002602052604081206007015460ff16600381111561043b5761043b611e5b565b0361044e5761044b60018361223c565b91505b61045960018261223c565b905061040d565b505f8167ffffffffffffffff81111561047b5761047b6120de565b6040519080825280602002602001820160405280156104b457816020015b6104a1611dcf565b8152602001906001900390816104995790505b5090505f60015b5f548110156106dc575f8181526002602052604081206007015460ff1660038111156104e9576104e9611e5b565b036106ca575f818152600260208181526040928390208351610120810185528154815260018201546001600160a01b031692810192909252918201805491938401916105349061224f565b80601f01602080910402602001604051908101604052809291908181526020018280546105609061224f565b80156105ab5780601f10610582576101008083540402835291602001916105ab565b820191905f5260205f20905b81548152906001019060200180831161058e57829003601f168201915b505050505081526020016003820180546105c49061224f565b80601f01602080910402602001604051908101604052809291908181526020018280546105f09061224f565b801561063b5780601f106106125761010080835404028352916020019161063b565b820191905f5260205f20905b81548152906001019060200180831161061e57829003601f168201915b5050509183525050600482015460208201526005820154604082015260068201546060820152600782015460809091019060ff16600381111561068057610680611e5b565b600381111561069157610691611e5b565b81526020016008820154815250508383815181106106b1576106b1612214565b60209081029190910101526106c760018361223c565b91505b6106d560018261223c565b90506104bb565b50909392505050565b5f818152600260205260408120548290820361071c5760405162461bcd60e51b815260040161071390612281565b60405180910390fd5b5f8381526004602052604090205491505b50919050565b5f818152600260205260408120548291036107605760405162461bcd60e51b815260040161071390612281565b5f8281526002602052604090206001015482906001600160a01b0316331461079a5760405162461bcd60e51b8152600401610713906122ae565b5f8381526002602052604090206003600782015460ff1660038111156107c2576107c2611e5b565b146108065760405162461bcd60e51b8152602060048201526014602482015273125d195b481a5cc81b9bdd081d5b9b1a5cdd195960621b6044820152606401610713565b60078101805460ff19169055604051339085907fcc12273109f3d8eca09052ecccbc89a18eda4f657a12f358e27ccf9fad506704905f90a350505050565b5f818152600360205260408120548291036108715760405162461bcd60e51b8152600401610713906122e5565b5f828152600360209081526040808320600180820154855260029093529220908101546001600160a01b031633146108bb5760405162461bcd60e51b8152600401610713906122ae565b6001600983015460ff1660028111156108d6576108d6611e5b565b146109235760405162461bcd60e51b815260206004820152601b60248201527f52656e74616c2072657475726e206e6f742072657175657374656400000000006044820152606401610713565b6002600782015460ff16600381111561093e5761093e611e5b565b1461098b5760405162461bcd60e51b815260206004820152601960248201527f4974656d2072657475726e206e6f7420726571756573746564000000000000006044820152606401610713565b600282810154600183810154600480870154600588015460098901805460ff1990811690981790554260088a0155600788018054909716909655928701545f9081526020919091526040808220829055516001600160a01b0394851695949092169391859083908381818185875af1925050503d805f8114610a28576040519150601f19603f3d011682016040523d82523d5f602084013e610a2d565b606091505b5050905080610a765760405162461bcd60e51b815260206004820152601560248201527411195c1bdcda5d081c99599d5b990819985a5b1959605a1b6044820152606401610713565b5f846001600160a01b0316846040515f6040518083038185875af1925050503d805f8114610abf576040519150601f19603f3d011682016040523d82523d5f602084013e610ac4565b606091505b5050905080610b0c5760405162461bcd60e51b815260206004820152601460248201527314995b9d081d1c985b9cd9995c8819985a5b195960621b6044820152606401610713565b6001880154604080516001600160a01b0389811682526020820188905291810186905290871691908c907f544bd8c104d8af54372603cd2b55f3b0fb1bd11048515e906ab307db26b12f499060600160405180910390a450505050505050505050565b610b77611dcf565b5f82815260026020526040812054839103610ba45760405162461bcd60e51b815260040161071390612281565b5f838152600260208181526040928390208351610120810185528154815260018201546001600160a01b03169281019290925291820180549193840191610bea9061224f565b80601f0160208091040260200160405190810160405280929190818152602001828054610c169061224f565b8015610c615780601f10610c3857610100808354040283529160200191610c61565b820191905f5260205f20905b815481529060010190602001808311610c4457829003601f168201915b50505050508152602001600382018054610c7a9061224f565b80601f0160208091040260200160405190810160405280929190818152602001828054610ca69061224f565b8015610cf15780601f10610cc857610100808354040283529160200191610cf1565b820191905f5260205f20905b815481529060010190602001808311610cd457829003601f168201915b5050509183525050600482015460208201526005820154604082015260068201546060820152600782015460809091019060ff166003811115610d3657610d36611e5b565b6003811115610d4757610d47611e5b565b8152602001600882015481525050915050919050565b60605f60015f54610d6e9190612314565b90505f8167ffffffffffffffff811115610d8a57610d8a6120de565b604051908082528060200260200182016040528015610dc357816020015b610db0611dcf565b815260200190600190039081610da85790505b50905060015b5f54811015610fbd575f818152600260208181526040928390208351610120810185528154815260018201546001600160a01b03169281019290925291820180549193840191610e189061224f565b80601f0160208091040260200160405190810160405280929190818152602001828054610e449061224f565b8015610e8f5780601f10610e6657610100808354040283529160200191610e8f565b820191905f5260205f20905b815481529060010190602001808311610e7257829003601f168201915b50505050508152602001600382018054610ea89061224f565b80601f0160208091040260200160405190810160405280929190818152602001828054610ed49061224f565b8015610f1f5780601f10610ef657610100808354040283529160200191610f1f565b820191905f5260205f20905b815481529060010190602001808311610f0257829003601f168201915b5050509183525050600482015460208201526005820154604082015260068201546060820152600782015460809091019060ff166003811115610f6457610f64611e5b565b6003811115610f7557610f75611e5b565b81526008919091015460209091015282610f90600184612314565b81518110610fa057610fa0612214565b6020908102919091010152610fb660018261223c565b9050610dc9565b5092915050565b5f81815260036020526040812054829103610ff15760405162461bcd60e51b8152600401610713906122e5565b5f8281526003602052604090206002015482906001600160a01b0316331461105b5760405162461bcd60e51b815260206004820152601760248201527f4f6e6c792072656e7465722063616e206f7065726174650000000000000000006044820152606401610713565b5f83815260036020908152604080832060018101548452600290925282209091600983015460ff16600281111561109457611094611e5b565b146110d85760405162461bcd60e51b815260206004820152601460248201527352656e74616c206973206e6f742061637469766560601b6044820152606401610713565b6001600782015460ff1660038111156110f3576110f3611e5b565b146111355760405162461bcd60e51b8152602060048201526012602482015271125d195b481a5cc81b9bdd081c995b9d195960721b6044820152606401610713565b600982018054600160ff1991821681179092554260078086019190915583018054909116600217905582015460405133919087907f3bbab66eb58d2b7041d03265d61c54c0288bbb67af5136b5a00ba4305f86b6f9905f90a45050505050565b5f818152600260205260408120548291036111c25760405162461bcd60e51b815260040161071390612281565b5f8281526002602052604090206001015482906001600160a01b031633146111fc5760405162461bcd60e51b8152600401610713906122ae565b5f83815260026020526040812090600782015460ff16600381111561122357611223611e5b565b146112685760405162461bcd60e51b81526020600482015260156024820152744974656d206973206e6f7420617661696c61626c6560581b6044820152606401610713565b60078101805460ff19166003179055604051339085907f347b7bb4233bc28848861c76967de56cdd64f25608753babc8ee10d3df207f57905f90a350505050565b6112b1611d6d565b5f828152600360205260408120548391036112de5760405162461bcd60e51b8152600401610713906122e5565b5f83815260036020818152604092839020835161014081018552815481526001820154928101929092526002808201546001600160a01b03169483019490945291820154606082015260048201546080820152600582015460a0820152600682015460c0820152600782015460e082015260088201546101008201526009820154909261012084019160ff169081111561137a5761137a611e5b565b600281111561138b5761138b611e5b565b9052509392505050565b5f808651116113d95760405162461bcd60e51b815260206004820152601060248201526f13985b59481a5cc81c995c5d5a5c995960821b6044820152606401610713565b5f8551116114295760405162461bcd60e51b815260206004820152601760248201527f4465736372697074696f6e2069732072657175697265640000000000000000006044820152606401610713565b5f84116114875760405162461bcd60e51b815260206004820152602660248201527f52656e742070657220646179206d7573742062652067726561746572207468616044820152656e207a65726f60d01b6064820152608401610713565b5f83116114e05760405162461bcd60e51b815260206004820152602160248201527f4465706f736974206d7573742062652067726561746572207468616e207a65726044820152606f60f81b6064820152608401610713565b5f82116115415760405162461bcd60e51b815260206004820152602960248201527f4d61782072656e74616c2064617973206d7573742062652067726561746572206044820152687468616e207a65726f60b81b6064820152608401610713565b505f80549060019080611554838561223c565b90915550506040805161012081018252828152336020820152908101879052606081018690526080810185905260a0810184905260c0810183905260e081015f8152426020918201525f838152600280835260409182902084518155928401516001840180546001600160a01b0319166001600160a01b0390921691909117905590830151908201906115e79082612375565b50606082015160038201906115fc9082612375565b506080820151600482015560a0820151600582015560c0820151600682015560e082015160078201805460ff1916600183600381111561163e5761163e611e5b565b02179055506101009190910151600890910155335f818152600560209081526040808320805460018101825590845291909220018390555182907fca5e57c4d52ad55c47fd781ec6c933b374fc17d8c099cafe4716f41d2cb27305906116a9908a9089908990612431565b60405180910390a395945050505050565b5f82815260026020526040812054839082036116e85760405162461bcd60e51b815260040161071390612281565b5f84815260026020526040812090600782015460ff16600381111561170f5761170f611e5b565b146117545760405162461bcd60e51b81526020600482015260156024820152744974656d206973206e6f7420617661696c61626c6560581b6044820152606401610713565b60018101546001600160a01b031633036117b05760405162461bcd60e51b815260206004820152601f60248201527f4974656d206f776e65722063616e6e6f742072656e74206f776e206974656d006044820152606401610713565b5f841161180d5760405162461bcd60e51b815260206004820152602560248201527f52656e74616c2064617973206d7573742062652067726561746572207468616e604482015264207a65726f60d81b6064820152608401610713565b806006015484111561185a5760405162461bcd60e51b81526020600482015260166024820152750a4cadce8c2d840c8c2f2e640caf0c6cacac840dac2f60531b6044820152606401610713565b5f85815260046020526040902054156118b55760405162461bcd60e51b815260206004820152601e60248201527f4974656d20616c726561647920686173206163746976652072656e74616c00006044820152606401610713565b5f8482600401546118c69190612455565b90505f8260050154826118d9919061223c565b905080341461192a5760405162461bcd60e51b815260206004820152601860248201527f496e636f7272656374207061796d656e7420616d6f756e7400000000000000006044820152606401610713565b600180549550805f61193c828961223c565b92505081905550604051806101400160405280868152602001888152602001336001600160a01b03168152602001878152602001838152602001846005015481526020014281526020015f81526020015f81526020015f60028111156119a4576119a4611e5b565b81525060035f8781526020019081526020015f205f820151815f0155602082015181600101556040820151816002015f6101000a8154816001600160a01b0302191690836001600160a01b03160217905550606082015181600301556080820151816004015560a0820151816005015560c0820151816006015560e082015181600701556101008201518160080155610120820151816009015f6101000a81548160ff02191690836002811115611a5d57611a5d611e5b565b0217905550505060078301805460ff191660019081179091555f888152600460209081526040808320899055338084526006835281842080549586018155845292829020909301889055825189815234918101919091529091899188917fdf5931dc2ffc7f686dfc9c5758586b7ad08c59faf6960bf03634e49af681ce23910160405180910390a45050505092915050565b6001600160a01b0381165f90815260056020526040812080546060929067ffffffffffffffff811115611b2457611b246120de565b604051908082528060200260200182016040528015611b5d57816020015b611b4a611dcf565b815260200190600190039081611b425790505b5090505f5b82548110156103ff5760025f848381548110611b8057611b80612214565b5f918252602080832090910154835282810193909352604091820190208151610120810183528154815260018201546001600160a01b0316938101939093526002810180549192840191611bd39061224f565b80601f0160208091040260200160405190810160405280929190818152602001828054611bff9061224f565b8015611c4a5780601f10611c2157610100808354040283529160200191611c4a565b820191905f5260205f20905b815481529060010190602001808311611c2d57829003601f168201915b50505050508152602001600382018054611c639061224f565b80601f0160208091040260200160405190810160405280929190818152602001828054611c8f9061224f565b8015611cda5780601f10611cb157610100808354040283529160200191611cda565b820191905f5260205f20905b815481529060010190602001808311611cbd57829003601f168201915b5050509183525050600482015460208201526005820154604082015260068201546060820152600782015460809091019060ff166003811115611d1f57611d1f611e5b565b6003811115611d3057611d30611e5b565b8152602001600882015481525050828281518110611d5057611d50612214565b6020908102919091010152611d6660018261223c565b9050611b62565b6040518061014001604052805f81526020015f81526020015f6001600160a01b031681526020015f81526020015f81526020015f81526020015f81526020015f81526020015f81526020015f6002811115611dca57611dca611e5b565b905290565b6040518061012001604052805f81526020015f6001600160a01b0316815260200160608152602001606081526020015f81526020015f81526020015f81526020015f6003811115611e2257611e22611e5b565b81526020015f81525090565b5f60208284031215611e3e575f80fd5b81356001600160a01b0381168114611e54575f80fd5b9392505050565b634e487b7160e01b5f52602160045260245ffd5b60038110611e7f57611e7f611e5b565b9052565b80518252602081015160208301526040810151611eab60408401826001600160a01b03169052565b50606081015160608301526080810151608083015260a081015160a083015260c081015160c083015260e081015160e083015261010080820151818401525061012080820151611efd82850182611e6f565b50505050565b602080825282518282018190525f9190848201906040850190845b81811015611f4557611f31838551611e83565b928401926101409290920191600101611f1e565b50909695505050505050565b5f81518084525f5b81811015611f7557602081850181015186830182015201611f59565b505f602082860101526020601f19601f83011685010191505092915050565b60048110611e7f57611e7f611e5b565b5f610120825184526020830151611fc660208601826001600160a01b03169052565b506040830151816040860152611fde82860182611f51565b91505060608301518482036060860152611ff88282611f51565b9150506080830151608085015260a083015160a085015260c083015160c085015260e083015161202b60e0860182611f94565b50610100928301519390920192909252919050565b5f602080830181845280855180835260408601915060408160051b87010192508387015f5b8281101561209357603f19888603018452612081858351611fa4565b94509285019290850190600101612065565b5092979650505050505050565b5f602082840312156120b0575f80fd5b5035919050565b602081525f611e546020830184611fa4565b61014081016120d88284611e83565b92915050565b634e487b7160e01b5f52604160045260245ffd5b5f82601f830112612101575f80fd5b813567ffffffffffffffff8082111561211c5761211c6120de565b604051601f8301601f19908116603f01168101908282118183101715612144576121446120de565b8160405283815286602085880101111561215c575f80fd5b836020870160208301375f602085830101528094505050505092915050565b5f805f805f60a0868803121561218f575f80fd5b853567ffffffffffffffff808211156121a6575f80fd5b6121b289838a016120f2565b965060208801359150808211156121c7575f80fd5b506121d4888289016120f2565b959895975050505060408401359360608101359360809091013592509050565b5f8060408385031215612205575f80fd5b50508035926020909101359150565b634e487b7160e01b5f52603260045260245ffd5b634e487b7160e01b5f52601160045260245ffd5b808201808211156120d8576120d8612228565b600181811c9082168061226357607f821691505b60208210810361072d57634e487b7160e01b5f52602260045260245ffd5b602080825260139082015272125d195b48191bd95cc81b9bdd08195e1a5cdd606a1b604082015260600190565b6020808252601b908201527f4f6e6c79206974656d206f776e65722063616e206f7065726174650000000000604082015260600190565b60208082526015908201527414995b9d185b08191bd95cc81b9bdd08195e1a5cdd605a1b604082015260600190565b818103818111156120d8576120d8612228565b601f821115612370575f81815260208120601f850160051c8101602086101561234d5750805b601f850160051c820191505b8181101561236c57828155600101612359565b5050505b505050565b815167ffffffffffffffff81111561238f5761238f6120de565b6123a38161239d845461224f565b84612327565b602080601f8311600181146123d6575f84156123bf5750858301515b5f19600386901b1c1916600185901b17855561236c565b5f85815260208120601f198616915b82811015612404578886015182559484019460019091019084016123e5565b508582101561242157878501515f19600388901b60f8161c191681555b5050505050600190811b01905550565b606081525f6124436060830186611f51565b60208301949094525060400152919050565b80820281158282048414176120d8576120d861222856fea2646970667358221220ad978001b042b02d43acf4f3e8dbf213ef0f56f56431e922fe6cec8440a9c99f64736f6c63430008140033",
  "immutableReferences": {},
  "source": "// SPDX-License-Identifier: MIT\npragma solidity ^0.8.20;\n\n/// @title 校园共享物品租赁平台合约\n/// @notice 支持校园物品发布、租赁、归还申请、发布者确认归还、押金退回和租金结算。\n/// @dev 本合约用于课程选题一演示，资金由合约在租赁期间托管，确认归还后分别退回押金并结算租金。\ncontract CampusRental {\n    // ============ Enums ============\n\n    /// @notice 物品状态，用于表示一件物品在租赁流程中的当前位置。\n    enum ItemStatus {\n        // 可租赁，允许租赁者发起租赁。\n        Available,\n        // 已租赁，押金和租金已进入合约托管。\n        Rented,\n        // 租赁者已申请归还，等待发布者确认。\n        ReturnRequested,\n        // 已下架，不再展示为可租赁物品。\n        Unlisted\n    }\n\n    /// @notice 租赁记录状态，用于跟踪单次租赁交易的完整生命周期。\n    enum RentalStatus {\n        // 租赁进行中。\n        Active,\n        // 租赁者已申请归还。\n        ReturnRequested,\n        // 发布者已确认归还，资金已结算。\n        Completed\n    }\n\n    // ============ Structs ============\n\n    /// @notice 校园共享物品信息。\n    /// @dev rentPerDay 和 deposit 均以 wei 为单位存储，前端提交 ETH 后会换算为 wei。\n    struct Item {\n        // 物品编号，从 1 开始递增。\n        uint256 id;\n        // 发布者地址，也是归还确认和租金接收方。\n        address payable owner;\n        // 物品名称。\n        string name;\n        // 物品描述。\n        string description;\n        // 每日租金，单位 wei。\n        uint256 rentPerDay;\n        // 押金，单位 wei。\n        uint256 deposit;\n        // 最长可租赁天数。\n        uint256 maxRentalDays;\n        // 当前物品状态。\n        ItemStatus status;\n        // 发布时间戳。\n        uint256 createdAt;\n    }\n\n    /// @notice 单次租赁记录。\n    /// @dev 记录租赁者、租赁天数、租金、押金以及归还确认时间，便于前端展示“我的租赁”。\n    struct RentalRecord {\n        // 租赁记录编号，从 1 开始递增。\n        uint256 id;\n        // 对应物品编号。\n        uint256 itemId;\n        // 租赁者地址，也是押金退款接收方。\n        address payable renter;\n        // 实际租赁天数。\n        uint256 rentDays;\n        // 本次租赁应结算给发布者的租金，单位 wei。\n        uint256 rentAmount;\n        // 本次租赁托管的押金，单位 wei。\n        uint256 depositAmount;\n        // 租赁开始时间戳。\n        uint256 startTime;\n        // 租赁者申请归还时间戳，未申请时为 0。\n        uint256 returnRequestedAt;\n        // 发布者确认归还时间戳，未完成时为 0。\n        uint256 completedAt;\n        // 当前租赁记录状态。\n        RentalStatus status;\n    }\n\n    // ============ State ============\n\n    uint256 private nextItemId = 1;\n    uint256 private nextRentalId = 1;\n\n    // itemId => Item\n    mapping(uint256 => Item) private items;\n    // rentalId => RentalRecord\n    mapping(uint256 => RentalRecord) private rentals;\n    // itemId => active rentalId，值为 0 表示当前无活跃租赁。\n    mapping(uint256 => uint256) private activeRentalByItem;\n    // user => published item ids，用于“我的发布”查询。\n    mapping(address => uint256[]) private userPublishedItems;\n    // user => rental record ids，用于“我的租赁”查询。\n    mapping(address => uint256[]) private userRentalRecords;\n\n    // ============ Events ============\n\n    /// @notice 发布者成功发布物品时触发。\n    /// @param itemId 新物品编号。\n    /// @param owner 发布者地址。\n    /// @param name 物品名称。\n    /// @param rentPerDay 每日租金，单位 wei。\n    /// @param deposit 押金，单位 wei。\n    event ItemCreated(\n        uint256 indexed itemId,\n        address indexed owner,\n        string name,\n        uint256 rentPerDay,\n        uint256 deposit\n    );\n\n    /// @notice 发布者下架可租赁物品时触发。\n    /// @param itemId 被下架的物品编号。\n    /// @param owner 发布者地址。\n    event ItemUnlisted(uint256 indexed itemId, address indexed owner);\n\n    /// @notice 发布者重新上架已下架物品时触发。\n    /// @param itemId 被重新上架的物品编号。\n    /// @param owner 发布者地址。\n    event ItemRelisted(uint256 indexed itemId, address indexed owner);\n\n    /// @notice 租赁者成功租赁物品并支付租金与押金时触发。\n    /// @param rentalId 新租赁记录编号。\n    /// @param itemId 被租赁的物品编号。\n    /// @param renter 租赁者地址。\n    /// @param rentDays 租赁天数。\n    /// @param paidAmount 本次支付总额，等于租金加押金，单位 wei。\n    event ItemRented(\n        uint256 indexed rentalId,\n        uint256 indexed itemId,\n        address indexed renter,\n        uint256 rentDays,\n        uint256 paidAmount\n    );\n\n    /// @notice 租赁者申请归还物品时触发。\n    /// @param rentalId 租赁记录编号。\n    /// @param itemId 归还申请对应的物品编号。\n    /// @param renter 发起归还申请的租赁者地址。\n    event ReturnRequested(\n        uint256 indexed rentalId,\n        uint256 indexed itemId,\n        address indexed renter\n    );\n\n    /// @notice 发布者确认归还并完成押金退款、租金结算时触发。\n    /// @param rentalId 租赁记录编号。\n    /// @param itemId 归还确认对应的物品编号。\n    /// @param owner 发布者地址，接收租金。\n    /// @param renter 租赁者地址，接收押金退款。\n    /// @param rentAmount 结算给发布者的租金，单位 wei。\n    /// @param depositAmount 退回给租赁者的押金，单位 wei。\n    event ReturnConfirmed(\n        uint256 indexed rentalId,\n        uint256 indexed itemId,\n        address indexed owner,\n        address renter,\n        uint256 rentAmount,\n        uint256 depositAmount\n    );\n\n    // ============ Modifiers ============\n\n    /// @notice 限制物品必须存在。\n    /// @param itemId 待检查的物品编号。\n    modifier itemExists(uint256 itemId) {\n        require(items[itemId].id != 0, \"Item does not exist\");\n        _;\n    }\n\n    /// @notice 限制租赁记录必须存在。\n    /// @param rentalId 待检查的租赁记录编号。\n    modifier rentalExists(uint256 rentalId) {\n        require(rentals[rentalId].id != 0, \"Rental does not exist\");\n        _;\n    }\n\n    /// @notice 限制只有物品发布者可以执行。\n    /// @param itemId 待操作的物品编号。\n    modifier onlyItemOwner(uint256 itemId) {\n        require(msg.sender == items[itemId].owner, \"Only item owner can operate\");\n        _;\n    }\n\n    /// @notice 限制只有对应租赁者可以执行。\n    /// @param rentalId 待操作的租赁记录编号。\n    modifier onlyRentalRenter(uint256 rentalId) {\n        require(msg.sender == rentals[rentalId].renter, \"Only renter can operate\");\n        _;\n    }\n\n    // ============ Write Functions ============\n\n    /// @notice 发布一件新的校园共享物品。\n    /// @dev 发布成功后物品状态为 Available，并加入发布者的“我的发布”列表。\n    /// @param name 物品名称，不能为空。\n    /// @param description 物品描述，不能为空。\n    /// @param rentPerDay 每日租金，单位 wei，必须大于 0。\n    /// @param deposit 押金，单位 wei，必须大于 0。\n    /// @param maxRentalDays 最长租赁天数，必须大于 0。\n    /// @return itemId 新创建的物品编号。\n    function createItem(\n        string memory name,\n        string memory description,\n        uint256 rentPerDay,\n        uint256 deposit,\n        uint256 maxRentalDays\n    ) external returns (uint256 itemId) {\n        require(bytes(name).length > 0, \"Name is required\");\n        require(bytes(description).length > 0, \"Description is required\");\n        require(rentPerDay > 0, \"Rent per day must be greater than zero\");\n        require(deposit > 0, \"Deposit must be greater than zero\");\n        require(maxRentalDays > 0, \"Max rental days must be greater than zero\");\n\n        itemId = nextItemId;\n        nextItemId += 1;\n\n        items[itemId] = Item({\n            id: itemId,\n            owner: payable(msg.sender),\n            name: name,\n            description: description,\n            rentPerDay: rentPerDay,\n            deposit: deposit,\n            maxRentalDays: maxRentalDays,\n            status: ItemStatus.Available,\n            createdAt: block.timestamp\n        });\n        userPublishedItems[msg.sender].push(itemId);\n\n        emit ItemCreated(itemId, msg.sender, name, rentPerDay, deposit);\n    }\n\n    /// @notice 租赁一件当前可租赁的物品。\n    /// @dev 调用者必须不是发布者，支付金额必须等于 rentPerDay * rentDays + deposit；成功后资金由合约托管。\n    /// @param itemId 待租赁的物品编号。\n    /// @param rentDays 租赁天数，必须大于 0 且不超过物品设置的最大租赁天数。\n    /// @return rentalId 新创建的租赁记录编号。\n    function rentItem(uint256 itemId, uint256 rentDays)\n        external\n        payable\n        itemExists(itemId)\n        returns (uint256 rentalId)\n    {\n        Item storage item = items[itemId];\n\n        require(item.status == ItemStatus.Available, \"Item is not available\");\n        require(msg.sender != item.owner, \"Item owner cannot rent own item\");\n        require(rentDays > 0, \"Rental days must be greater than zero\");\n        require(rentDays <= item.maxRentalDays, \"Rental days exceed max\");\n        require(activeRentalByItem[itemId] == 0, \"Item already has active rental\");\n\n        uint256 rentAmount = item.rentPerDay * rentDays;\n        uint256 totalPayment = rentAmount + item.deposit;\n        require(msg.value == totalPayment, \"Incorrect payment amount\");\n\n        rentalId = nextRentalId;\n        nextRentalId += 1;\n\n        rentals[rentalId] = RentalRecord({\n            id: rentalId,\n            itemId: itemId,\n            renter: payable(msg.sender),\n            rentDays: rentDays,\n            rentAmount: rentAmount,\n            depositAmount: item.deposit,\n            startTime: block.timestamp,\n            returnRequestedAt: 0,\n            completedAt: 0,\n            status: RentalStatus.Active\n        });\n\n        item.status = ItemStatus.Rented;\n        activeRentalByItem[itemId] = rentalId;\n        userRentalRecords[msg.sender].push(rentalId);\n\n        emit ItemRented(rentalId, itemId, msg.sender, rentDays, msg.value);\n    }\n\n    /// @notice 租赁者申请归还物品。\n    /// @dev 只有租赁记录中的租赁者可以申请；申请后物品和租赁记录都会进入待确认归还状态。\n    /// @param rentalId 待申请归还的租赁记录编号。\n    function requestReturn(uint256 rentalId)\n        external\n        rentalExists(rentalId)\n        onlyRentalRenter(rentalId)\n    {\n        RentalRecord storage rental = rentals[rentalId];\n        Item storage item = items[rental.itemId];\n\n        require(rental.status == RentalStatus.Active, \"Rental is not active\");\n        require(item.status == ItemStatus.Rented, \"Item is not rented\");\n\n        rental.status = RentalStatus.ReturnRequested;\n        rental.returnRequestedAt = block.timestamp;\n        item.status = ItemStatus.ReturnRequested;\n\n        emit ReturnRequested(rentalId, rental.itemId, msg.sender);\n    }\n\n    /// @notice 发布者确认租赁者已归还物品。\n    /// @dev 只有物品发布者可以确认；确认后退回押金给租赁者，并将租金结算给发布者。\n    /// @param rentalId 待确认归还的租赁记录编号。\n    function confirmReturn(uint256 rentalId)\n        external\n        rentalExists(rentalId)\n    {\n        RentalRecord storage rental = rentals[rentalId];\n        Item storage item = items[rental.itemId];\n\n        require(msg.sender == item.owner, \"Only item owner can operate\");\n        require(rental.status == RentalStatus.ReturnRequested, \"Rental return not requested\");\n        require(item.status == ItemStatus.ReturnRequested, \"Item return not requested\");\n\n        address payable renter = rental.renter;\n        address payable owner = item.owner;\n        uint256 rentAmount = rental.rentAmount;\n        uint256 depositAmount = rental.depositAmount;\n\n        rental.status = RentalStatus.Completed;\n        rental.completedAt = block.timestamp;\n        item.status = ItemStatus.Available;\n        activeRentalByItem[rental.itemId] = 0;\n\n        (bool depositSent, ) = renter.call{value: depositAmount}(\"\");\n        require(depositSent, \"Deposit refund failed\");\n\n        (bool rentSent, ) = owner.call{value: rentAmount}(\"\");\n        require(rentSent, \"Rent transfer failed\");\n\n        emit ReturnConfirmed(rentalId, rental.itemId, owner, renter, rentAmount, depositAmount);\n    }\n\n    /// @notice 下架一件未被租赁的物品。\n    /// @dev 只有发布者可以下架，且物品必须处于 Available 状态；下架后不会出现在可租赁列表中。\n    /// @param itemId 待下架的物品编号。\n    function unlistItem(uint256 itemId)\n        external\n        itemExists(itemId)\n        onlyItemOwner(itemId)\n    {\n        Item storage item = items[itemId];\n        require(item.status == ItemStatus.Available, \"Item is not available\");\n\n        item.status = ItemStatus.Unlisted;\n\n        emit ItemUnlisted(itemId, msg.sender);\n    }\n\n    /// @notice 重新上架已下架的物品。\n    /// @dev 只有发布者可以重新上架，且物品必须处于 Unlisted 状态。\n    /// @param itemId 待重新上架的物品编号。\n    function relistItem(uint256 itemId)\n        external\n        itemExists(itemId)\n        onlyItemOwner(itemId)\n    {\n        Item storage item = items[itemId];\n        require(item.status == ItemStatus.Unlisted, \"Item is not unlisted\");\n\n        item.status = ItemStatus.Available;\n\n        emit ItemRelisted(itemId, msg.sender);\n    }\n\n    // ============ Read Functions ============\n\n    /// @notice 查询单个物品详情。\n    /// @param itemId 待查询的物品编号。\n    /// @return 指定物品的完整信息。\n    function getItem(uint256 itemId) external view itemExists(itemId) returns (Item memory) {\n        return items[itemId];\n    }\n\n    /// @notice 查询单条租赁记录详情。\n    /// @param rentalId 待查询的租赁记录编号。\n    /// @return 指定租赁记录的完整信息。\n    function getRental(uint256 rentalId)\n        external\n        view\n        rentalExists(rentalId)\n        returns (RentalRecord memory)\n    {\n        return rentals[rentalId];\n    }\n\n    /// @notice 查询平台中所有已发布过的物品。\n    /// @dev 返回结果包含可租赁、已租赁、待确认归还和已下架物品，用于物品大厅或管理页展示完整状态。\n    /// @return result 所有物品数组，按物品编号从小到大排列。\n    function getAllItems() external view returns (Item[] memory) {\n        uint256 totalItems = nextItemId - 1;\n        Item[] memory result = new Item[](totalItems);\n\n        for (uint256 i = 1; i < nextItemId; i += 1) {\n            result[i - 1] = items[i];\n        }\n\n        return result;\n    }\n\n    /// @notice 查询当前可租赁物品列表。\n    /// @dev 只返回状态为 Available 的物品，前端物品大厅用它判断哪些物品可被租赁。\n    /// @return result 可租赁物品数组。\n    function getAvailableItems() external view returns (Item[] memory) {\n        uint256 availableCount = 0;\n\n        for (uint256 i = 1; i < nextItemId; i += 1) {\n            if (items[i].status == ItemStatus.Available) {\n                availableCount += 1;\n            }\n        }\n\n        Item[] memory result = new Item[](availableCount);\n        uint256 cursor = 0;\n\n        for (uint256 i = 1; i < nextItemId; i += 1) {\n            if (items[i].status == ItemStatus.Available) {\n                result[cursor] = items[i];\n                cursor += 1;\n            }\n        }\n\n        return result;\n    }\n\n    /// @notice 查询指定用户发布过的物品。\n    /// @dev 用于“我的发布”页面，发布者可据此管理上下架并确认归还。\n    /// @param user 待查询的发布者地址。\n    /// @return result 该地址发布过的物品数组。\n    function getMyPublishedItems(address user) external view returns (Item[] memory) {\n        uint256[] storage itemIds = userPublishedItems[user];\n        Item[] memory result = new Item[](itemIds.length);\n\n        for (uint256 i = 0; i < itemIds.length; i += 1) {\n            result[i] = items[itemIds[i]];\n        }\n\n        return result;\n    }\n\n    /// @notice 查询指定用户的租赁记录。\n    /// @dev 用于“我的租赁”页面，租赁者可查看状态并在租赁中发起归还申请。\n    /// @param user 待查询的租赁者地址。\n    /// @return result 该地址产生过的租赁记录数组。\n    function getMyRentalRecords(address user) external view returns (RentalRecord[] memory) {\n        uint256[] storage rentalIds = userRentalRecords[user];\n        RentalRecord[] memory result = new RentalRecord[](rentalIds.length);\n\n        for (uint256 i = 0; i < rentalIds.length; i += 1) {\n            result[i] = rentals[rentalIds[i]];\n        }\n\n        return result;\n    }\n\n    /// @notice 查询某个物品当前关联的活跃租赁记录编号。\n    /// @dev 返回 0 表示该物品当前没有活跃租赁，用于防止重复租赁和前端状态展示。\n    /// @param itemId 待查询的物品编号。\n    /// @return 当前活跃租赁记录编号；没有活跃租赁时返回 0。\n    function getActiveRentalByItem(uint256 itemId)\n        external\n        view\n        itemExists(itemId)\n        returns (uint256)\n    {\n        return activeRentalByItem[itemId];\n    }\n}\n",
  "sourcePath": "/Users/wu/Desktop/wu/AAaagccc/Solidity智能合约开发/campus-rent-dapp/contracts/CampusRental.sol",
  "compiler": {
    "name": "solc",
    "version": "0.8.20+commit.a1b79de6.Emscripten.clang"
  },
  "schemaVersion": "3.4.16",
  "updatedAt": "2026-06-19T12:53:04.702Z",
  "networkType": "ethereum",
  "devdoc": {
    "details": "本合约用于课程选题一演示，资金由合约在租赁期间托管，确认归还后分别退回押金并结算租金。",
    "events": {
      "ItemCreated(uint256,address,string,uint256,uint256)": {
        "params": {
          "deposit": "押金，单位 wei。",
          "itemId": "新物品编号。",
          "name": "物品名称。",
          "owner": "发布者地址。",
          "rentPerDay": "每日租金，单位 wei。"
        }
      },
      "ItemRelisted(uint256,address)": {
        "params": {
          "itemId": "被重新上架的物品编号。",
          "owner": "发布者地址。"
        }
      },
      "ItemRented(uint256,uint256,address,uint256,uint256)": {
        "params": {
          "itemId": "被租赁的物品编号。",
          "paidAmount": "本次支付总额，等于租金加押金，单位 wei。",
          "rentDays": "租赁天数。",
          "rentalId": "新租赁记录编号。",
          "renter": "租赁者地址。"
        }
      },
      "ItemUnlisted(uint256,address)": {
        "params": {
          "itemId": "被下架的物品编号。",
          "owner": "发布者地址。"
        }
      },
      "ReturnConfirmed(uint256,uint256,address,address,uint256,uint256)": {
        "params": {
          "depositAmount": "退回给租赁者的押金，单位 wei。",
          "itemId": "归还确认对应的物品编号。",
          "owner": "发布者地址，接收租金。",
          "rentAmount": "结算给发布者的租金，单位 wei。",
          "rentalId": "租赁记录编号。",
          "renter": "租赁者地址，接收押金退款。"
        }
      },
      "ReturnRequested(uint256,uint256,address)": {
        "params": {
          "itemId": "归还申请对应的物品编号。",
          "rentalId": "租赁记录编号。",
          "renter": "发起归还申请的租赁者地址。"
        }
      }
    },
    "kind": "dev",
    "methods": {
      "confirmReturn(uint256)": {
        "details": "只有物品发布者可以确认；确认后退回押金给租赁者，并将租金结算给发布者。",
        "params": {
          "rentalId": "待确认归还的租赁记录编号。"
        }
      },
      "createItem(string,string,uint256,uint256,uint256)": {
        "details": "发布成功后物品状态为 Available，并加入发布者的“我的发布”列表。",
        "params": {
          "deposit": "押金，单位 wei，必须大于 0。",
          "description": "物品描述，不能为空。",
          "maxRentalDays": "最长租赁天数，必须大于 0。",
          "name": "物品名称，不能为空。",
          "rentPerDay": "每日租金，单位 wei，必须大于 0。"
        },
        "returns": {
          "itemId": "新创建的物品编号。"
        }
      },
      "getActiveRentalByItem(uint256)": {
        "details": "返回 0 表示该物品当前没有活跃租赁，用于防止重复租赁和前端状态展示。",
        "params": {
          "itemId": "待查询的物品编号。"
        },
        "returns": {
          "_0": "当前活跃租赁记录编号；没有活跃租赁时返回 0。"
        }
      },
      "getAllItems()": {
        "details": "返回结果包含可租赁、已租赁、待确认归还和已下架物品，用于物品大厅或管理页展示完整状态。",
        "returns": {
          "_0": "result 所有物品数组，按物品编号从小到大排列。"
        }
      },
      "getAvailableItems()": {
        "details": "只返回状态为 Available 的物品，前端物品大厅用它判断哪些物品可被租赁。",
        "returns": {
          "_0": "result 可租赁物品数组。"
        }
      },
      "getItem(uint256)": {
        "params": {
          "itemId": "待查询的物品编号。"
        },
        "returns": {
          "_0": "指定物品的完整信息。"
        }
      },
      "getMyPublishedItems(address)": {
        "details": "用于“我的发布”页面，发布者可据此管理上下架并确认归还。",
        "params": {
          "user": "待查询的发布者地址。"
        },
        "returns": {
          "_0": "result 该地址发布过的物品数组。"
        }
      },
      "getMyRentalRecords(address)": {
        "details": "用于“我的租赁”页面，租赁者可查看状态并在租赁中发起归还申请。",
        "params": {
          "user": "待查询的租赁者地址。"
        },
        "returns": {
          "_0": "result 该地址产生过的租赁记录数组。"
        }
      },
      "getRental(uint256)": {
        "params": {
          "rentalId": "待查询的租赁记录编号。"
        },
        "returns": {
          "_0": "指定租赁记录的完整信息。"
        }
      },
      "relistItem(uint256)": {
        "details": "只有发布者可以重新上架，且物品必须处于 Unlisted 状态。",
        "params": {
          "itemId": "待重新上架的物品编号。"
        }
      },
      "rentItem(uint256,uint256)": {
        "details": "调用者必须不是发布者，支付金额必须等于 rentPerDay * rentDays + deposit；成功后资金由合约托管。",
        "params": {
          "itemId": "待租赁的物品编号。",
          "rentDays": "租赁天数，必须大于 0 且不超过物品设置的最大租赁天数。"
        },
        "returns": {
          "rentalId": "新创建的租赁记录编号。"
        }
      },
      "requestReturn(uint256)": {
        "details": "只有租赁记录中的租赁者可以申请；申请后物品和租赁记录都会进入待确认归还状态。",
        "params": {
          "rentalId": "待申请归还的租赁记录编号。"
        }
      },
      "unlistItem(uint256)": {
        "details": "只有发布者可以下架，且物品必须处于 Available 状态；下架后不会出现在可租赁列表中。",
        "params": {
          "itemId": "待下架的物品编号。"
        }
      }
    },
    "title": "校园共享物品租赁平台合约",
    "version": 1
  },
  "userdoc": {
    "events": {
      "ItemCreated(uint256,address,string,uint256,uint256)": {
        "notice": "发布者成功发布物品时触发。"
      },
      "ItemRelisted(uint256,address)": {
        "notice": "发布者重新上架已下架物品时触发。"
      },
      "ItemRented(uint256,uint256,address,uint256,uint256)": {
        "notice": "租赁者成功租赁物品并支付租金与押金时触发。"
      },
      "ItemUnlisted(uint256,address)": {
        "notice": "发布者下架可租赁物品时触发。"
      },
      "ReturnConfirmed(uint256,uint256,address,address,uint256,uint256)": {
        "notice": "发布者确认归还并完成押金退款、租金结算时触发。"
      },
      "ReturnRequested(uint256,uint256,address)": {
        "notice": "租赁者申请归还物品时触发。"
      }
    },
    "kind": "user",
    "methods": {
      "confirmReturn(uint256)": {
        "notice": "发布者确认租赁者已归还物品。"
      },
      "createItem(string,string,uint256,uint256,uint256)": {
        "notice": "发布一件新的校园共享物品。"
      },
      "getActiveRentalByItem(uint256)": {
        "notice": "查询某个物品当前关联的活跃租赁记录编号。"
      },
      "getAllItems()": {
        "notice": "查询平台中所有已发布过的物品。"
      },
      "getAvailableItems()": {
        "notice": "查询当前可租赁物品列表。"
      },
      "getItem(uint256)": {
        "notice": "查询单个物品详情。"
      },
      "getMyPublishedItems(address)": {
        "notice": "查询指定用户发布过的物品。"
      },
      "getMyRentalRecords(address)": {
        "notice": "查询指定用户的租赁记录。"
      },
      "getRental(uint256)": {
        "notice": "查询单条租赁记录详情。"
      },
      "relistItem(uint256)": {
        "notice": "重新上架已下架的物品。"
      },
      "rentItem(uint256,uint256)": {
        "notice": "租赁一件当前可租赁的物品。"
      },
      "requestReturn(uint256)": {
        "notice": "租赁者申请归还物品。"
      },
      "unlistItem(uint256)": {
        "notice": "下架一件未被租赁的物品。"
      }
    },
    "notice": "支持校园物品发布、租赁、归还申请、发布者确认归还、押金退回和租金结算。",
    "version": 1
  }
}