{
  "contractName": "CampusRental",
  "abi": [
    {
      "anonymous": false,
      "inputs": [
        {
          "indexed": true,
          "internalType": "uint256",
          "name": "itemId",
          "type": "uint256"
        },
        {
          "indexed": true,
          "internalType": "address",
          "name": "owner",
          "type": "address"
        },
        {
          "indexed": false,
          "internalType": "string",
          "name": "name",
          "type": "string"
        },
        {
          "indexed": false,
          "internalType": "uint256",
          "name": "rentPerDay",
          "type": "uint256"
        },
        {
          "indexed": false,
          "internalType": "uint256",
          "name": "deposit",
          "type": "uint256"
        }
      ],
      "name": "ItemCreated",
      "type": "event"
    },
    {
      "anonymous": false,
      "inputs": [
        {
          "indexed": true,
          "internalType": "uint256",
          "name": "rentalId",
          "type": "uint256"
        },
        {
          "indexed": true,
          "internalType": "uint256",
          "name": "itemId",
          "type": "uint256"
        },
        {
          "indexed": true,
          "internalType": "address",
          "name": "renter",
          "type": "address"
        },
        {
          "indexed": false,
          "internalType": "uint256",
          "name": "rentDays",
          "type": "uint256"
        },
        {
          "indexed": false,
          "internalType": "uint256",
          "name": "paidAmount",
          "type": "uint256"
        }
      ],
      "name": "ItemRented",
      "type": "event"
    },
    {
      "anonymous": false,
      "inputs": [
        {
          "indexed": true,
          "internalType": "uint256",
          "name": "itemId",
          "type": "uint256"
        },
        {
          "indexed": true,
          "internalType": "address",
          "name": "owner",
          "type": "address"
        }
      ],
      "name": "ItemUnlisted",
      "type": "event"
    },
    {
      "anonymous": false,
      "inputs": [
        {
          "indexed": true,
          "internalType": "uint256",
          "name": "rentalId",
          "type": "uint256"
        },
        {
          "indexed": true,
          "internalType": "uint256",
          "name": "itemId",
          "type": "uint256"
        },
        {
          "indexed": true,
          "internalType": "address",
          "name": "owner",
          "type": "address"
        },
        {
          "indexed": false,
          "internalType": "address",
          "name": "renter",
          "type": "address"
        },
        {
          "indexed": false,
          "internalType": "uint256",
          "name": "rentAmount",
          "type": "uint256"
        },
        {
          "indexed": false,
          "internalType": "uint256",
          "name": "depositAmount",
          "type": "uint256"
        }
      ],
      "name": "ReturnConfirmed",
      "type": "event"
    },
    {
      "anonymous": false,
      "inputs": [
        {
          "indexed": true,
          "internalType": "uint256",
          "name": "rentalId",
          "type": "uint256"
        },
        {
          "indexed": true,
          "internalType": "uint256",
          "name": "itemId",
          "type": "uint256"
        },
        {
          "indexed": true,
          "internalType": "address",
          "name": "renter",
          "type": "address"
        }
      ],
      "name": "ReturnRequested",
      "type": "event"
    },
    {
      "inputs": [
        {
          "internalType": "string",
          "name": "name",
          "type": "string"
        },
        {
          "internalType": "string",
          "name": "description",
          "type": "string"
        },
        {
          "internalType": "uint256",
          "name": "rentPerDay",
          "type": "uint256"
        },
        {
          "internalType": "uint256",
          "name": "deposit",
          "type": "uint256"
        },
        {
          "internalType": "uint256",
          "name": "maxRentalDays",
          "type": "uint256"
        }
      ],
      "name": "createItem",
      "outputs": [
        {
          "internalType": "uint256",
          "name": "itemId",
          "type": "uint256"
        }
      ],
      "stateMutability": "nonpayable",
      "type": "function"
    },
    {
      "inputs": [
        {
          "internalType": "uint256",
          "name": "itemId",
          "type": "uint256"
        },
        {
          "internalType": "uint256",
          "name": "rentDays",
          "type": "uint256"
        }
      ],
      "name": "rentItem",
      "outputs": [
        {
          "internalType": "uint256",
          "name": "rentalId",
          "type": "uint256"
        }
      ],
      "stateMutability": "payable",
      "type": "function",
      "payable": true
    },
    {
      "inputs": [
        {
          "internalType": "uint256",
          "name": "rentalId",
          "type": "uint256"
        }
      ],
      "name": "requestReturn",
      "outputs": [],
      "stateMutability": "nonpayable",
      "type": "function"
    },
    {
      "inputs": [
        {
          "internalType": "uint256",
          "name": "rentalId",
          "type": "uint256"
        }
      ],
      "name": "confirmReturn",
      "outputs": [],
      "stateMutability": "nonpayable",
      "type": "function"
    },
    {
      "inputs": [
        {
          "internalType": "uint256",
          "name": "itemId",
          "type": "uint256"
        }
      ],
      "name": "unlistItem",
      "outputs": [],
      "stateMutability": "nonpayable",
      "type": "function"
    },
    {
      "inputs": [
        {
          "internalType": "uint256",
          "name": "itemId",
          "type": "uint256"
        }
      ],
      "name": "getItem",
      "outputs": [
        {
          "components": [
            {
              "internalType": "uint256",
              "name": "id",
              "type": "uint256"
            },
            {
              "internalType": "address payable",
              "name": "owner",
              "type": "address"
            },
            {
              "internalType": "string",
              "name": "name",
              "type": "string"
            },
            {
              "internalType": "string",
              "name": "description",
              "type": "string"
            },
            {
              "internalType": "uint256",
              "name": "rentPerDay",
              "type": "uint256"
            },
            {
              "internalType": "uint256",
              "name": "deposit",
              "type": "uint256"
            },
            {
              "internalType": "uint256",
              "name": "maxRentalDays",
              "type": "uint256"
            },
            {
              "internalType": "enum CampusRental.ItemStatus",
              "name": "status",
              "type": "uint8"
            },
            {
              "internalType": "uint256",
              "name": "createdAt",
              "type": "uint256"
            }
          ],
          "internalType": "struct CampusRental.Item",
          "name": "",
          "type": "tuple"
        }
      ],
      "stateMutability": "view",
      "type": "function",
      "constant": true
    },
    {
      "inputs": [
        {
          "internalType": "uint256",
          "name": "rentalId",
          "type": "uint256"
        }
      ],
      "name": "getRental",
      "outputs": [
        {
          "components": [
            {
              "internalType": "uint256",
              "name": "id",
              "type": "uint256"
            },
            {
              "internalType": "uint256",
              "name": "itemId",
              "type": "uint256"
            },
            {
              "internalType": "address payable",
              "name": "renter",
              "type": "address"
            },
            {
              "internalType": "uint256",
              "name": "rentDays",
              "type": "uint256"
            },
            {
              "internalType": "uint256",
              "name": "rentAmount",
              "type": "uint256"
            },
            {
              "internalType": "uint256",
              "name": "depositAmount",
              "type": "uint256"
            },
            {
              "internalType": "uint256",
              "name": "startTime",
              "type": "uint256"
            },
            {
              "internalType": "uint256",
              "name": "returnRequestedAt",
              "type": "uint256"
            },
            {
              "internalType": "uint256",
              "name": "completedAt",
              "type": "uint256"
            },
            {
              "internalType": "enum CampusRental.RentalStatus",
              "name": "status",
              "type": "uint8"
            }
          ],
          "internalType": "struct CampusRental.RentalRecord",
          "name": "",
          "type": "tuple"
        }
      ],
      "stateMutability": "view",
      "type": "function",
      "constant": true
    },
    {
      "inputs": [],
      "name": "getAllItems",
      "outputs": [
        {
          "components": [
            {
              "internalType": "uint256",
              "name": "id",
              "type": "uint256"
            },
            {
              "internalType": "address payable",
              "name": "owner",
              "type": "address"
            },
            {
              "internalType": "string",
              "name": "name",
              "type": "string"
            },
            {
              "internalType": "string",
              "name": "description",
              "type": "string"
            },
            {
              "internalType": "uint256",
              "name": "rentPerDay",
              "type": "uint256"
            },
            {
              "internalType": "uint256",
              "name": "deposit",
              "type": "uint256"
            },
            {
              "internalType": "uint256",
              "name": "maxRentalDays",
              "type": "uint256"
            },
            {
              "internalType": "enum CampusRental.ItemStatus",
              "name": "status",
              "type": "uint8"
            },
            {
              "internalType": "uint256",
              "name": "createdAt",
              "type": "uint256"
            }
          ],
          "internalType": "struct CampusRental.Item[]",
          "name": "",
          "type": "tuple[]"
        }
      ],
      "stateMutability": "view",
      "type": "function",
      "constant": true
    },
    {
      "inputs": [],
      "name": "getAvailableItems",
      "outputs": [
        {
          "components": [
            {
              "internalType": "uint256",
              "name": "id",
              "type": "uint256"
            },
            {
              "internalType": "address payable",
              "name": "owner",
              "type": "address"
            },
            {
              "internalType": "string",
              "name": "name",
              "type": "string"
            },
            {
              "internalType": "string",
              "name": "description",
              "type": "string"
            },
            {
              "internalType": "uint256",
              "name": "rentPerDay",
              "type": "uint256"
            },
            {
              "internalType": "uint256",
              "name": "deposit",
              "type": "uint256"
            },
            {
              "internalType": "uint256",
              "name": "maxRentalDays",
              "type": "uint256"
            },
            {
              "internalType": "enum CampusRental.ItemStatus",
              "name": "status",
              "type": "uint8"
            },
            {
              "internalType": "uint256",
              "name": "createdAt",
              "type": "uint256"
            }
          ],
          "internalType": "struct CampusRental.Item[]",
          "name": "",
          "type": "tuple[]"
        }
      ],
      "stateMutability": "view",
      "type": "function",
      "constant": true
    },
    {
      "inputs": [
        {
          "internalType": "address",
          "name": "user",
          "type": "address"
        }
      ],
      "name": "getMyPublishedItems",
      "outputs": [
        {
          "components": [
            {
              "internalType": "uint256",
              "name": "id",
              "type": "uint256"
            },
            {
              "internalType": "address payable",
              "name": "owner",
              "type": "address"
            },
            {
              "internalType": "string",
              "name": "name",
              "type": "string"
            },
            {
              "internalType": "string",
              "name": "description",
              "type": "string"
            },
            {
              "internalType": "uint256",
              "name": "rentPerDay",
              "type": "uint256"
            },
            {
              "internalType": "uint256",
              "name": "deposit",
              "type": "uint256"
            },
            {
              "internalType": "uint256",
              "name": "maxRentalDays",
              "type": "uint256"
            },
            {
              "internalType": "enum CampusRental.ItemStatus",
              "name": "status",
              "type": "uint8"
            },
            {
              "internalType": "uint256",
              "name": "createdAt",
              "type": "uint256"
            }
          ],
          "internalType": "struct CampusRental.Item[]",
          "name": "",
          "type": "tuple[]"
        }
      ],
      "stateMutability": "view",
      "type": "function",
      "constant": true
    },
    {
      "inputs": [
        {
          "internalType": "address",
          "name": "user",
          "type": "address"
        }
      ],
      "name": "getMyRentalRecords",
      "outputs": [
        {
          "components": [
            {
              "internalType": "uint256",
              "name": "id",
              "type": "uint256"
            },
            {
              "internalType": "uint256",
              "name": "itemId",
              "type": "uint256"
            },
            {
              "internalType": "address payable",
              "name": "renter",
              "type": "address"
            },
            {
              "internalType": "uint256",
              "name": "rentDays",
              "type": "uint256"
            },
            {
              "internalType": "uint256",
              "name": "rentAmount",
              "type": "uint256"
            },
            {
              "internalType": "uint256",
              "name": "depositAmount",
              "type": "uint256"
            },
            {
              "internalType": "uint256",
              "name": "startTime",
              "type": "uint256"
            },
            {
              "internalType": "uint256",
              "name": "returnRequestedAt",
              "type": "uint256"
            },
            {
              "internalType": "uint256",
              "name": "completedAt",
              "type": "uint256"
            },
            {
              "internalType": "enum CampusRental.RentalStatus",
              "name": "status",
              "type": "uint8"
            }
          ],
          "internalType": "struct CampusRental.RentalRecord[]",
          "name": "",
          "type": "tuple[]"
        }
      ],
      "stateMutability": "view",
      "type": "function",
      "constant": true
    },
    {
      "inputs": [
        {
          "internalType": "uint256",
          "name": "itemId",
          "type": "uint256"
        }
      ],
      "name": "getActiveRentalByItem",
      "outputs": [
        {
          "internalType": "uint256",
          "name": "",
          "type": "uint256"
        }
      ],
      "stateMutability": "view",
      "type": "function",
      "constant": true
    }
  ],
  "bytecode": "0x608060405260015f5560018055348015610017575f80fd5b50612381806100255f395ff3fe6080604052600436106100a5575f3560e01c80635867658211610062578063586765821461018d5780635a599da8146101ac578063652bd29e146101cb5780636adb7f92146101f7578063a29e4e5d14610216578063b011a44f14610229575f80fd5b806307f58819146100a95780630c43d6f3146100de57806310c99993146100ff5780632e5df6e31461012c5780633129e7731461014d5780634ba1d6aa14610179575b5f80fd5b3480156100b4575f80fd5b506100c86100c3366004611d44565b610248565b6040516100d59190611e19565b60405180910390f35b3480156100e9575f80fd5b506100f26103ce565b6040516100d59190611f56565b34801561010a575f80fd5b5061011e610119366004611fb6565b6106ac565b6040519081526020016100d5565b348015610137575f80fd5b5061014b610146366004611fb6565b6106fa565b005b348015610158575f80fd5b5061016c610167366004611fb6565b610a55565b6040516100d59190611fcd565b348015610184575f80fd5b506100f2610c43565b348015610198575f80fd5b5061014b6101a7366004611fb6565b610eaa565b3480156101b7575f80fd5b5061014b6101c6366004611fb6565b61107b565b3480156101d6575f80fd5b506101ea6101e5366004611fb6565b6111bf565b6040516100d59190611fdf565b348015610202575f80fd5b5061011e610211366004612091565b6112ab565b61011e61022436600461210a565b6115d0565b348015610234575f80fd5b506100f2610243366004611d44565b611a05565b6001600160a01b0381165f90815260066020526040812080546060929067ffffffffffffffff81111561027d5761027d611ff4565b6040519080825280602002602001820160405280156102b657816020015b6102a3611c83565b81526020019060019003908161029b5790505b5090505f5b82548110156103c65760035f8483815481106102d9576102d961212a565b5f91825260208083209091015483528281019390935260409182019020815161014081018352815481526001820154938101939093526002808201546001600160a01b0316928401929092526003810154606084015260048101546080840152600581015460a0840152600681015460c0840152600781015460e084015260088101546101008401526009810154909161012084019160ff169081111561038257610382611d71565b600281111561039357610393611d71565b815250508282815181106103a9576103a961212a565b60209081029190910101526103bf600182612152565b90506102bb565b509392505050565b60605f60015b5f54811015610427575f8181526002602052604081206007015460ff16600381111561040257610402611d71565b0361041557610412600183612152565b91505b610420600182612152565b90506103d4565b505f8167ffffffffffffffff81111561044257610442611ff4565b60405190808252806020026020018201604052801561047b57816020015b610468611ce5565b8152602001906001900390816104605790505b5090505f60015b5f548110156106a3575f8181526002602052604081206007015460ff1660038111156104b0576104b0611d71565b03610691575f818152600260208181526040928390208351610120810185528154815260018201546001600160a01b031692810192909252918201805491938401916104fb90612165565b80601f016020809104026020016040519081016040528092919081815260200182805461052790612165565b80156105725780601f1061054957610100808354040283529160200191610572565b820191905f5260205f20905b81548152906001019060200180831161055557829003601f168201915b5050505050815260200160038201805461058b90612165565b80601f01602080910402602001604051908101604052809291908181526020018280546105b790612165565b80156106025780601f106105d957610100808354040283529160200191610602565b820191905f5260205f20905b8154815290600101906020018083116105e557829003601f168201915b5050509183525050600482015460208201526005820154604082015260068201546060820152600782015460809091019060ff16600381111561064757610647611d71565b600381111561065857610658611d71565b81526020016008820154815250508383815181106106785761067861212a565b602090810291909101015261068e600183612152565b91505b61069c600182612152565b9050610482565b50909392505050565b5f81815260026020526040812054829082036106e35760405162461bcd60e51b81526004016106da90612197565b60405180910390fd5b5f8381526004602052604090205491505b50919050565b5f818152600360205260408120548291036107275760405162461bcd60e51b81526004016106da906121c4565b5f828152600360209081526040808320600180820154855260029093529220908101546001600160a01b031633146107a15760405162461bcd60e51b815260206004820152601b60248201527f4f6e6c79206974656d206f776e65722063616e206f706572617465000000000060448201526064016106da565b6001600983015460ff1660028111156107bc576107bc611d71565b146108095760405162461bcd60e51b815260206004820152601b60248201527f52656e74616c2072657475726e206e6f7420726571756573746564000000000060448201526064016106da565b6002600782015460ff16600381111561082457610824611d71565b146108715760405162461bcd60e51b815260206004820152601960248201527f4974656d2072657475726e206e6f74207265717565737465640000000000000060448201526064016106da565b600282810154600183810154600480870154600588015460098901805460ff1990811690981790554260088a0155600788018054909716909655928701545f9081526020919091526040808220829055516001600160a01b0394851695949092169391859083908381818185875af1925050503d805f811461090e576040519150601f19603f3d011682016040523d82523d5f602084013e610913565b606091505b505090508061095c5760405162461bcd60e51b815260206004820152601560248201527411195c1bdcda5d081c99599d5b990819985a5b1959605a1b60448201526064016106da565b5f846001600160a01b0316846040515f6040518083038185875af1925050503d805f81146109a5576040519150601f19603f3d011682016040523d82523d5f602084013e6109aa565b606091505b50509050806109f25760405162461bcd60e51b815260206004820152601460248201527314995b9d081d1c985b9cd9995c8819985a5b195960621b60448201526064016106da565b6001880154604080516001600160a01b0389811682526020820188905291810186905290871691908c907f544bd8c104d8af54372603cd2b55f3b0fb1bd11048515e906ab307db26b12f499060600160405180910390a450505050505050505050565b610a5d611ce5565b5f82815260026020526040812054839103610a8a5760405162461bcd60e51b81526004016106da90612197565b5f838152600260208181526040928390208351610120810185528154815260018201546001600160a01b03169281019290925291820180549193840191610ad090612165565b80601f0160208091040260200160405190810160405280929190818152602001828054610afc90612165565b8015610b475780601f10610b1e57610100808354040283529160200191610b47565b820191905f5260205f20905b815481529060010190602001808311610b2a57829003601f168201915b50505050508152602001600382018054610b6090612165565b80601f0160208091040260200160405190810160405280929190818152602001828054610b8c90612165565b8015610bd75780601f10610bae57610100808354040283529160200191610bd7565b820191905f5260205f20905b815481529060010190602001808311610bba57829003601f168201915b5050509183525050600482015460208201526005820154604082015260068201546060820152600782015460809091019060ff166003811115610c1c57610c1c611d71565b6003811115610c2d57610c2d611d71565b8152602001600882015481525050915050919050565b60605f60015f54610c5491906121f3565b90505f8167ffffffffffffffff811115610c7057610c70611ff4565b604051908082528060200260200182016040528015610ca957816020015b610c96611ce5565b815260200190600190039081610c8e5790505b50905060015b5f54811015610ea3575f818152600260208181526040928390208351610120810185528154815260018201546001600160a01b03169281019290925291820180549193840191610cfe90612165565b80601f0160208091040260200160405190810160405280929190818152602001828054610d2a90612165565b8015610d755780601f10610d4c57610100808354040283529160200191610d75565b820191905f5260205f20905b815481529060010190602001808311610d5857829003601f168201915b50505050508152602001600382018054610d8e90612165565b80601f0160208091040260200160405190810160405280929190818152602001828054610dba90612165565b8015610e055780601f10610ddc57610100808354040283529160200191610e05565b820191905f5260205f20905b815481529060010190602001808311610de857829003601f168201915b5050509183525050600482015460208201526005820154604082015260068201546060820152600782015460809091019060ff166003811115610e4a57610e4a611d71565b6003811115610e5b57610e5b611d71565b81526008919091015460209091015282610e766001846121f3565b81518110610e8657610e8661212a565b6020908102919091010152610e9c600182612152565b9050610caf565b5092915050565b5f81815260036020526040812054829103610ed75760405162461bcd60e51b81526004016106da906121c4565b5f8281526003602052604090206002015482906001600160a01b03163314610f415760405162461bcd60e51b815260206004820152601760248201527f4f6e6c792072656e7465722063616e206f70657261746500000000000000000060448201526064016106da565b5f83815260036020908152604080832060018101548452600290925282209091600983015460ff166002811115610f7a57610f7a611d71565b14610fbe5760405162461bcd60e51b815260206004820152601460248201527352656e74616c206973206e6f742061637469766560601b60448201526064016106da565b6001600782015460ff166003811115610fd957610fd9611d71565b1461101b5760405162461bcd60e51b8152602060048201526012602482015271125d195b481a5cc81b9bdd081c995b9d195960721b60448201526064016106da565b600982018054600160ff1991821681179092554260078086019190915583018054909116600217905582015460405133919087907f3bbab66eb58d2b7041d03265d61c54c0288bbb67af5136b5a00ba4305f86b6f9905f90a45050505050565b5f818152600260205260408120548291036110a85760405162461bcd60e51b81526004016106da90612197565b5f8281526002602052604090206001015482906001600160a01b031633146111125760405162461bcd60e51b815260206004820152601b60248201527f4f6e6c79206974656d206f776e65722063616e206f706572617465000000000060448201526064016106da565b5f83815260026020526040812090600782015460ff16600381111561113957611139611d71565b1461117e5760405162461bcd60e51b81526020600482015260156024820152744974656d206973206e6f7420617661696c61626c6560581b60448201526064016106da565b60078101805460ff19166003179055604051339085907f347b7bb4233bc28848861c76967de56cdd64f25608753babc8ee10d3df207f57905f90a350505050565b6111c7611c83565b5f828152600360205260408120548391036111f45760405162461bcd60e51b81526004016106da906121c4565b5f83815260036020818152604092839020835161014081018552815481526001820154928101929092526002808201546001600160a01b03169483019490945291820154606082015260048201546080820152600582015460a0820152600682015460c0820152600782015460e082015260088201546101008201526009820154909261012084019160ff169081111561129057611290611d71565b60028111156112a1576112a1611d71565b9052509392505050565b5f808651116112ef5760405162461bcd60e51b815260206004820152601060248201526f13985b59481a5cc81c995c5d5a5c995960821b60448201526064016106da565b5f85511161133f5760405162461bcd60e51b815260206004820152601760248201527f4465736372697074696f6e20697320726571756972656400000000000000000060448201526064016106da565b5f841161139d5760405162461bcd60e51b815260206004820152602660248201527f52656e742070657220646179206d7573742062652067726561746572207468616044820152656e207a65726f60d01b60648201526084016106da565b5f83116113f65760405162461bcd60e51b815260206004820152602160248201527f4465706f736974206d7573742062652067726561746572207468616e207a65726044820152606f60f81b60648201526084016106da565b5f82116114575760405162461bcd60e51b815260206004820152602960248201527f4d61782072656e74616c2064617973206d7573742062652067726561746572206044820152687468616e207a65726f60b81b60648201526084016106da565b505f8054906001908061146a8385612152565b90915550506040805161012081018252828152336020820152908101879052606081018690526080810185905260a0810184905260c0810183905260e081015f8152426020918201525f838152600280835260409182902084518155928401516001840180546001600160a01b0319166001600160a01b0390921691909117905590830151908201906114fd9082612254565b50606082015160038201906115129082612254565b506080820151600482015560a0820151600582015560c0820151600682015560e082015160078201805460ff1916600183600381111561155457611554611d71565b02179055506101009190910151600890910155335f818152600560209081526040808320805460018101825590845291909220018390555182907fca5e57c4d52ad55c47fd781ec6c933b374fc17d8c099cafe4716f41d2cb27305906115bf908a9089908990612310565b60405180910390a395945050505050565b5f82815260026020526040812054839082036115fe5760405162461bcd60e51b81526004016106da90612197565b5f84815260026020526040812090600782015460ff16600381111561162557611625611d71565b1461166a5760405162461bcd60e51b81526020600482015260156024820152744974656d206973206e6f7420617661696c61626c6560581b60448201526064016106da565b60018101546001600160a01b031633036116c65760405162461bcd60e51b815260206004820152601f60248201527f4974656d206f776e65722063616e6e6f742072656e74206f776e206974656d0060448201526064016106da565b5f84116117235760405162461bcd60e51b815260206004820152602560248201527f52656e74616c2064617973206d7573742062652067726561746572207468616e604482015264207a65726f60d81b60648201526084016106da565b80600601548411156117705760405162461bcd60e51b81526020600482015260166024820152750a4cadce8c2d840c8c2f2e640caf0c6cacac840dac2f60531b60448201526064016106da565b5f85815260046020526040902054156117cb5760405162461bcd60e51b815260206004820152601e60248201527f4974656d20616c726561647920686173206163746976652072656e74616c000060448201526064016106da565b5f8482600401546117dc9190612334565b90505f8260050154826117ef9190612152565b90508034146118405760405162461bcd60e51b815260206004820152601860248201527f496e636f7272656374207061796d656e7420616d6f756e74000000000000000060448201526064016106da565b600180549550805f6118528289612152565b92505081905550604051806101400160405280868152602001888152602001336001600160a01b03168152602001878152602001838152602001846005015481526020014281526020015f81526020015f81526020015f60028111156118ba576118ba611d71565b81525060035f8781526020019081526020015f205f820151815f0155602082015181600101556040820151816002015f6101000a8154816001600160a01b0302191690836001600160a01b03160217905550606082015181600301556080820151816004015560a0820151816005015560c0820151816006015560e082015181600701556101008201518160080155610120820151816009015f6101000a81548160ff0219169083600281111561197357611973611d71565b0217905550505060078301805460ff191660019081179091555f888152600460209081526040808320899055338084526006835281842080549586018155845292829020909301889055825189815234918101919091529091899188917fdf5931dc2ffc7f686dfc9c5758586b7ad08c59faf6960bf03634e49af681ce23910160405180910390a45050505092915050565b6001600160a01b0381165f90815260056020526040812080546060929067ffffffffffffffff811115611a3a57611a3a611ff4565b604051908082528060200260200182016040528015611a7357816020015b611a60611ce5565b815260200190600190039081611a585790505b5090505f5b82548110156103c65760025f848381548110611a9657611a9661212a565b5f918252602080832090910154835282810193909352604091820190208151610120810183528154815260018201546001600160a01b0316938101939093526002810180549192840191611ae990612165565b80601f0160208091040260200160405190810160405280929190818152602001828054611b1590612165565b8015611b605780601f10611b3757610100808354040283529160200191611b60565b820191905f5260205f20905b815481529060010190602001808311611b4357829003601f168201915b50505050508152602001600382018054611b7990612165565b80601f0160208091040260200160405190810160405280929190818152602001828054611ba590612165565b8015611bf05780601f10611bc757610100808354040283529160200191611bf0565b820191905f5260205f20905b815481529060010190602001808311611bd357829003601f168201915b5050509183525050600482015460208201526005820154604082015260068201546060820152600782015460809091019060ff166003811115611c3557611c35611d71565b6003811115611c4657611c46611d71565b8152602001600882015481525050828281518110611c6657611c6661212a565b6020908102919091010152611c7c600182612152565b9050611a78565b6040518061014001604052805f81526020015f81526020015f6001600160a01b031681526020015f81526020015f81526020015f81526020015f81526020015f81526020015f81526020015f6002811115611ce057611ce0611d71565b905290565b6040518061012001604052805f81526020015f6001600160a01b0316815260200160608152602001606081526020015f81526020015f81526020015f81526020015f6003811115611d3857611d38611d71565b81526020015f81525090565b5f60208284031215611d54575f80fd5b81356001600160a01b0381168114611d6a575f80fd5b9392505050565b634e487b7160e01b5f52602160045260245ffd5b60038110611d9557611d95611d71565b9052565b80518252602081015160208301526040810151611dc160408401826001600160a01b03169052565b50606081015160608301526080810151608083015260a081015160a083015260c081015160c083015260e081015160e083015261010080820151818401525061012080820151611e1382850182611d85565b50505050565b602080825282518282018190525f9190848201906040850190845b81811015611e5b57611e47838551611d99565b928401926101409290920191600101611e34565b50909695505050505050565b5f81518084525f5b81811015611e8b57602081850181015186830182015201611e6f565b505f602082860101526020601f19601f83011685010191505092915050565b60048110611d9557611d95611d71565b5f610120825184526020830151611edc60208601826001600160a01b03169052565b506040830151816040860152611ef482860182611e67565b91505060608301518482036060860152611f0e8282611e67565b9150506080830151608085015260a083015160a085015260c083015160c085015260e0830151611f4160e0860182611eaa565b50610100928301519390920192909252919050565b5f602080830181845280855180835260408601915060408160051b87010192508387015f5b82811015611fa957603f19888603018452611f97858351611eba565b94509285019290850190600101611f7b565b5092979650505050505050565b5f60208284031215611fc6575f80fd5b5035919050565b602081525f611d6a6020830184611eba565b6101408101611fee8284611d99565b92915050565b634e487b7160e01b5f52604160045260245ffd5b5f82601f830112612017575f80fd5b813567ffffffffffffffff8082111561203257612032611ff4565b604051601f8301601f19908116603f0116810190828211818310171561205a5761205a611ff4565b81604052838152866020858801011115612072575f80fd5b836020870160208301375f602085830101528094505050505092915050565b5f805f805f60a086880312156120a5575f80fd5b853567ffffffffffffffff808211156120bc575f80fd5b6120c889838a01612008565b965060208801359150808211156120dd575f80fd5b506120ea88828901612008565b959895975050505060408401359360608101359360809091013592509050565b5f806040838503121561211b575f80fd5b50508035926020909101359150565b634e487b7160e01b5f52603260045260245ffd5b634e487b7160e01b5f52601160045260245ffd5b80820180821115611fee57611fee61213e565b600181811c9082168061217957607f821691505b6020821081036106f457634e487b7160e01b5f52602260045260245ffd5b602080825260139082015272125d195b48191bd95cc81b9bdd08195e1a5cdd606a1b604082015260600190565b60208082526015908201527414995b9d185b08191bd95cc81b9bdd08195e1a5cdd605a1b604082015260600190565b81810381811115611fee57611fee61213e565b601f82111561224f575f81815260208120601f850160051c8101602086101561222c5750805b601f850160051c820191505b8181101561224b57828155600101612238565b5050505b505050565b815167ffffffffffffffff81111561226e5761226e611ff4565b6122828161227c8454612165565b84612206565b602080601f8311600181146122b5575f841561229e5750858301515b5f19600386901b1c1916600185901b17855561224b565b5f85815260208120601f198616915b828110156122e3578886015182559484019460019091019084016122c4565b508582101561230057878501515f19600388901b60f8161c191681555b5050505050600190811b01905550565b606081525f6123226060830186611e67565b60208301949094525060400152919050565b8082028115828204841417611fee57611fee61213e56fea2646970667358221220bf77aca439f26b9c449b7718a14c2b225b538d0e1672c55c059a755ed18c663564736f6c63430008140033",
  "immutableReferences": {},
  "source": "// SPDX-License-Identifier: MIT\npragma solidity ^0.8.20;\n\ncontract CampusRental {\n    enum ItemStatus {\n        Available,\n        Rented,\n        ReturnRequested,\n        Unlisted\n    }\n\n    enum RentalStatus {\n        Active,\n        ReturnRequested,\n        Completed\n    }\n\n    struct Item {\n        uint256 id;\n        address payable owner;\n        string name;\n        string description;\n        uint256 rentPerDay;\n        uint256 deposit;\n        uint256 maxRentalDays;\n        ItemStatus status;\n        uint256 createdAt;\n    }\n\n    struct RentalRecord {\n        uint256 id;\n        uint256 itemId;\n        address payable renter;\n        uint256 rentDays;\n        uint256 rentAmount;\n        uint256 depositAmount;\n        uint256 startTime;\n        uint256 returnRequestedAt;\n        uint256 completedAt;\n        RentalStatus status;\n    }\n\n    uint256 private nextItemId = 1;\n    uint256 private nextRentalId = 1;\n\n    mapping(uint256 => Item) private items;\n    mapping(uint256 => RentalRecord) private rentals;\n    mapping(uint256 => uint256) private activeRentalByItem;\n    mapping(address => uint256[]) private userPublishedItems;\n    mapping(address => uint256[]) private userRentalRecords;\n\n    event ItemCreated(\n        uint256 indexed itemId,\n        address indexed owner,\n        string name,\n        uint256 rentPerDay,\n        uint256 deposit\n    );\n    event ItemUnlisted(uint256 indexed itemId, address indexed owner);\n    event ItemRented(\n        uint256 indexed rentalId,\n        uint256 indexed itemId,\n        address indexed renter,\n        uint256 rentDays,\n        uint256 paidAmount\n    );\n    event ReturnRequested(uint256 indexed rentalId, uint256 indexed itemId, address indexed renter);\n    event ReturnConfirmed(\n        uint256 indexed rentalId,\n        uint256 indexed itemId,\n        address indexed owner,\n        address renter,\n        uint256 rentAmount,\n        uint256 depositAmount\n    );\n\n    modifier itemExists(uint256 itemId) {\n        require(items[itemId].id != 0, \"Item does not exist\");\n        _;\n    }\n\n    modifier rentalExists(uint256 rentalId) {\n        require(rentals[rentalId].id != 0, \"Rental does not exist\");\n        _;\n    }\n\n    modifier onlyItemOwner(uint256 itemId) {\n        require(msg.sender == items[itemId].owner, \"Only item owner can operate\");\n        _;\n    }\n\n    modifier onlyRentalRenter(uint256 rentalId) {\n        require(msg.sender == rentals[rentalId].renter, \"Only renter can operate\");\n        _;\n    }\n\n    function createItem(\n        string memory name,\n        string memory description,\n        uint256 rentPerDay,\n        uint256 deposit,\n        uint256 maxRentalDays\n    ) external returns (uint256 itemId) {\n        require(bytes(name).length > 0, \"Name is required\");\n        require(bytes(description).length > 0, \"Description is required\");\n        require(rentPerDay > 0, \"Rent per day must be greater than zero\");\n        require(deposit > 0, \"Deposit must be greater than zero\");\n        require(maxRentalDays > 0, \"Max rental days must be greater than zero\");\n\n        itemId = nextItemId;\n        nextItemId += 1;\n\n        items[itemId] = Item({\n            id: itemId,\n            owner: payable(msg.sender),\n            name: name,\n            description: description,\n            rentPerDay: rentPerDay,\n            deposit: deposit,\n            maxRentalDays: maxRentalDays,\n            status: ItemStatus.Available,\n            createdAt: block.timestamp\n        });\n        userPublishedItems[msg.sender].push(itemId);\n\n        emit ItemCreated(itemId, msg.sender, name, rentPerDay, deposit);\n    }\n\n    function rentItem(uint256 itemId, uint256 rentDays)\n        external\n        payable\n        itemExists(itemId)\n        returns (uint256 rentalId)\n    {\n        Item storage item = items[itemId];\n\n        require(item.status == ItemStatus.Available, \"Item is not available\");\n        require(msg.sender != item.owner, \"Item owner cannot rent own item\");\n        require(rentDays > 0, \"Rental days must be greater than zero\");\n        require(rentDays <= item.maxRentalDays, \"Rental days exceed max\");\n        require(activeRentalByItem[itemId] == 0, \"Item already has active rental\");\n\n        uint256 rentAmount = item.rentPerDay * rentDays;\n        uint256 totalPayment = rentAmount + item.deposit;\n        require(msg.value == totalPayment, \"Incorrect payment amount\");\n\n        rentalId = nextRentalId;\n        nextRentalId += 1;\n\n        rentals[rentalId] = RentalRecord({\n            id: rentalId,\n            itemId: itemId,\n            renter: payable(msg.sender),\n            rentDays: rentDays,\n            rentAmount: rentAmount,\n            depositAmount: item.deposit,\n            startTime: block.timestamp,\n            returnRequestedAt: 0,\n            completedAt: 0,\n            status: RentalStatus.Active\n        });\n\n        item.status = ItemStatus.Rented;\n        activeRentalByItem[itemId] = rentalId;\n        userRentalRecords[msg.sender].push(rentalId);\n\n        emit ItemRented(rentalId, itemId, msg.sender, rentDays, msg.value);\n    }\n\n    function requestReturn(uint256 rentalId)\n        external\n        rentalExists(rentalId)\n        onlyRentalRenter(rentalId)\n    {\n        RentalRecord storage rental = rentals[rentalId];\n        Item storage item = items[rental.itemId];\n\n        require(rental.status == RentalStatus.Active, \"Rental is not active\");\n        require(item.status == ItemStatus.Rented, \"Item is not rented\");\n\n        rental.status = RentalStatus.ReturnRequested;\n        rental.returnRequestedAt = block.timestamp;\n        item.status = ItemStatus.ReturnRequested;\n\n        emit ReturnRequested(rentalId, rental.itemId, msg.sender);\n    }\n\n    function confirmReturn(uint256 rentalId)\n        external\n        rentalExists(rentalId)\n    {\n        RentalRecord storage rental = rentals[rentalId];\n        Item storage item = items[rental.itemId];\n\n        require(msg.sender == item.owner, \"Only item owner can operate\");\n        require(rental.status == RentalStatus.ReturnRequested, \"Rental return not requested\");\n        require(item.status == ItemStatus.ReturnRequested, \"Item return not requested\");\n\n        address payable renter = rental.renter;\n        address payable owner = item.owner;\n        uint256 rentAmount = rental.rentAmount;\n        uint256 depositAmount = rental.depositAmount;\n\n        rental.status = RentalStatus.Completed;\n        rental.completedAt = block.timestamp;\n        item.status = ItemStatus.Available;\n        activeRentalByItem[rental.itemId] = 0;\n\n        (bool depositSent, ) = renter.call{value: depositAmount}(\"\");\n        require(depositSent, \"Deposit refund failed\");\n\n        (bool rentSent, ) = owner.call{value: rentAmount}(\"\");\n        require(rentSent, \"Rent transfer failed\");\n\n        emit ReturnConfirmed(rentalId, rental.itemId, owner, renter, rentAmount, depositAmount);\n    }\n\n    function unlistItem(uint256 itemId)\n        external\n        itemExists(itemId)\n        onlyItemOwner(itemId)\n    {\n        Item storage item = items[itemId];\n        require(item.status == ItemStatus.Available, \"Item is not available\");\n\n        item.status = ItemStatus.Unlisted;\n\n        emit ItemUnlisted(itemId, msg.sender);\n    }\n\n    function getItem(uint256 itemId) external view itemExists(itemId) returns (Item memory) {\n        return items[itemId];\n    }\n\n    function getRental(uint256 rentalId)\n        external\n        view\n        rentalExists(rentalId)\n        returns (RentalRecord memory)\n    {\n        return rentals[rentalId];\n    }\n\n    function getAllItems() external view returns (Item[] memory) {\n        uint256 totalItems = nextItemId - 1;\n        Item[] memory result = new Item[](totalItems);\n\n        for (uint256 i = 1; i < nextItemId; i += 1) {\n            result[i - 1] = items[i];\n        }\n\n        return result;\n    }\n\n    function getAvailableItems() external view returns (Item[] memory) {\n        uint256 availableCount = 0;\n\n        for (uint256 i = 1; i < nextItemId; i += 1) {\n            if (items[i].status == ItemStatus.Available) {\n                availableCount += 1;\n            }\n        }\n\n        Item[] memory result = new Item[](availableCount);\n        uint256 cursor = 0;\n\n        for (uint256 i = 1; i < nextItemId; i += 1) {\n            if (items[i].status == ItemStatus.Available) {\n                result[cursor] = items[i];\n                cursor += 1;\n            }\n        }\n\n        return result;\n    }\n\n    function getMyPublishedItems(address user) external view returns (Item[] memory) {\n        uint256[] storage itemIds = userPublishedItems[user];\n        Item[] memory result = new Item[](itemIds.length);\n\n        for (uint256 i = 0; i < itemIds.length; i += 1) {\n            result[i] = items[itemIds[i]];\n        }\n\n        return result;\n    }\n\n    function getMyRentalRecords(address user) external view returns (RentalRecord[] memory) {\n        uint256[] storage rentalIds = userRentalRecords[user];\n        RentalRecord[] memory result = new RentalRecord[](rentalIds.length);\n\n        for (uint256 i = 0; i < rentalIds.length; i += 1) {\n            result[i] = rentals[rentalIds[i]];\n        }\n\n        return result;\n    }\n\n    function getActiveRentalByItem(uint256 itemId)\n        external\n        view\n        itemExists(itemId)\n        returns (uint256)\n    {\n        return activeRentalByItem[itemId];\n    }\n}\n",
  "sourcePath": "/Users/wu/Desktop/wu/AAaagccc/《Solidity智能合约开发》/campus-rent-dapp/contracts/CampusRental.sol",
  "compiler": {
    "name": "solc",
    "version": "0.8.20+commit.a1b79de6.Emscripten.clang"
  },
  "schemaVersion": "3.4.16",
  "updatedAt": "2026-06-11T10:45:35.285Z",
  "networkType": "ethereum",
  "devdoc": {
    "kind": "dev",
    "methods": {},
    "version": 1
  },
  "userdoc": {
    "kind": "user",
    "methods": {},
    "version": 1
  }
}